{"abi":[{"type":"function","name":"cancelSubscription","inputs":[{"name":"subId","type":"uint256","internalType":"uint256"}],"outputs":[],"stateMutability":"nonpayable"},{"type":"function","name":"collectPayment","inputs":[{"name":"subId","type":"uint256","internalType":"uint256"}],"outputs":[],"stateMutability":"nonpayable"},{"type":"function","name":"createSubscription","inputs":[{"name":"creator","type":"address","internalType":"address"},{"name":"token","type":"address","internalType":"contract IERC20"},{"name":"amount","type":"uint256","internalType":"uint256"},{"name":"period","type":"uint256","internalType":"uint256"}],"outputs":[{"name":"","type":"uint256","internalType":"uint256"}],"stateMutability":"nonpayable"},{"type":"function","name":"nextSubId","inputs":[],"outputs":[{"name":"","type":"uint256","internalType":"uint256"}],"stateMutability":"view"},{"type":"function","name":"subscriptions","inputs":[{"name":"","type":"uint256","internalType":"uint256"}],"outputs":[{"name":"subscriber","type":"address","internalType":"address"},{"name":"creator","type":"address","internalType":"address"},{"name":"token","type":"address","internalType":"contract IERC20"},{"name":"amount","type":"uint256","internalType":"uint256"},{"name":"period","type":"uint256","internalType":"uint256"},{"name":"nextDue","type":"uint256","internalType":"uint256"},{"name":"active","type":"bool","internalType":"bool"}],"stateMutability":"view"},{"type":"function","name":"updateAmount","inputs":[{"name":"subId","type":"uint256","internalType":"uint256"},{"name":"newAmount","type":"uint256","internalType":"uint256"}],"outputs":[],"stateMutability":"nonpayable"},{"type":"event","name":"PaymentCollected","inputs":[{"name":"subId","type":"uint256","indexed":false,"internalType":"uint256"},{"name":"subscriber","type":"address","indexed":false,"internalType":"address"},{"name":"creator","type":"address","indexed":false,"internalType":"address"},{"name":"amount","type":"uint256","indexed":false,"internalType":"uint256"},{"name":"timestamp","type":"uint256","indexed":false,"internalType":"uint256"}],"anonymous":false},{"type":"event","name":"SubscriptionCancelled","inputs":[{"name":"subId","type":"uint256","indexed":false,"internalType":"uint256"}],"anonymous":false},{"type":"event","name":"SubscriptionCreated","inputs":[{"name":"subId","type":"uint256","indexed":false,"internalType":"uint256"},{"name":"subscriber","type":"address","indexed":false,"internalType":"address"},{"name":"creator","type":"address","indexed":false,"internalType":"address"},{"name":"amount","type":"uint256","indexed":false,"internalType":"uint256"},{"name":"period","type":"uint256","indexed":false,"internalType":"uint256"}],"anonymous":false}],"bytecode":{"object":"0x6080604052348015600e575f5ffd5b506111638061001c5f395ff3fe608060405234801561000f575f5ffd5b5060043610610060575f3560e01c80630179cc521461006457806321235083146100805780632d5bbf601461009c5780634795ac60146100d25780638de8b900146100ee5780639c99f37a1461011e575b5f5ffd5b61007e60048036038101906100799190610a4a565b61013c565b005b61009a60048036038101906100959190610a88565b610246565b005b6100b660048036038101906100b19190610a88565b610398565b6040516100c99796959493929190610b76565b60405180910390f35b6100ec60048036038101906100e79190610a88565b61043e565b005b61010860048036038101906101039190610c48565b6107c3565b6040516101159190610cac565b60405180910390f35b610126610a0d565b6040516101339190610cac565b60405180910390f35b5f5f5f8481526020019081526020015f209050805f015f9054906101000a900473ffffffffffffffffffffffffffffffffffffffff1673ffffffffffffffffffffffffffffffffffffffff163373ffffffffffffffffffffffffffffffffffffffff1614806101f95750806001015f9054906101000a900473ffffffffffffffffffffffffffffffffffffffff1673ffffffffffffffffffffffffffffffffffffffff163373ffffffffffffffffffffffffffffffffffffffff16145b610238576040517f08c379a000000000000000000000000000000000000000000000000000000000815260040161022f90610d1f565b60405180910390fd5b818160030181905550505050565b5f5f5f8381526020019081526020015f209050805f015f9054906101000a900473ffffffffffffffffffffffffffffffffffffffff1673ffffffffffffffffffffffffffffffffffffffff163373ffffffffffffffffffffffffffffffffffffffff1614806103035750806001015f9054906101000a900473ffffffffffffffffffffffffffffffffffffffff1673ffffffffffffffffffffffffffffffffffffffff163373ffffffffffffffffffffffffffffffffffffffff16145b610342576040517f08c379a000000000000000000000000000000000000000000000000000000000815260040161033990610d1f565b60405180910390fd5b5f816006015f6101000a81548160ff0219169083151502179055507fbd2bcea75d16a85f005cd83447e0de57341bf926fe7419e6d553663e91ab4da78260405161038c9190610cac565b60405180910390a15050565b5f602052805f5260405f205f91509050805f015f9054906101000a900473ffffffffffffffffffffffffffffffffffffffff1690806001015f9054906101000a900473ffffffffffffffffffffffffffffffffffffffff1690806002015f9054906101000a900473ffffffffffffffffffffffffffffffffffffffff1690806003015490806004015490806005015490806006015f9054906101000a900460ff16905087565b5f5f5f8381526020019081526020015f209050806006015f9054906101000a900460ff166104a1576040517f08c379a000000000000000000000000000000000000000000000000000000000815260040161049890610d87565b60405180910390fd5b80600501544210156104e8576040517f08c379a00000000000000000000000000000000000000000000000000000000081526004016104df90610def565b60405180910390fd5b5f816002015f9054906101000a900473ffffffffffffffffffffffffffffffffffffffff1673ffffffffffffffffffffffffffffffffffffffff1663dd62ed3e835f015f9054906101000a900473ffffffffffffffffffffffffffffffffffffffff16306040518363ffffffff1660e01b8152600401610569929190610e0d565b602060405180830381865afa158015610584573d5f5f3e3d5ffd5b505050506040513d601f19601f820116820180604052508101906105a89190610e48565b905081600301548110156105f1576040517f08c379a00000000000000000000000000000000000000000000000000000000081526004016105e890610ebd565b60405180910390fd5b5f826002015f9054906101000a900473ffffffffffffffffffffffffffffffffffffffff1673ffffffffffffffffffffffffffffffffffffffff166323b872dd845f015f9054906101000a900473ffffffffffffffffffffffffffffffffffffffff16856001015f9054906101000a900473ffffffffffffffffffffffffffffffffffffffff1686600301546040518463ffffffff1660e01b815260040161069b93929190610edb565b6020604051808303815f875af11580156106b7573d5f5f3e3d5ffd5b505050506040513d601f19601f820116820180604052508101906106db9190610f3a565b90508061071d576040517f08c379a000000000000000000000000000000000000000000000000000000000815260040161071490610faf565b60405180910390fd5b82600401544261072d9190610ffa565b83600501819055507f69208106315c970a63cf39050f2c1b30ad4b2e1544f2a2fd7e591f80946d8e2984845f015f9054906101000a900473ffffffffffffffffffffffffffffffffffffffff16856001015f9054906101000a900473ffffffffffffffffffffffffffffffffffffffff168660030154426040516107b595949392919061102d565b60405180910390a150505050565b5f5f8311610806576040517f08c379a00000000000000000000000000000000000000000000000000000000081526004016107fd906110c8565b60405180910390fd5b5f60015f815480929190610819906110e6565b9190505590506040518060e001604052803373ffffffffffffffffffffffffffffffffffffffff1681526020018773ffffffffffffffffffffffffffffffffffffffff1681526020018673ffffffffffffffffffffffffffffffffffffffff16815260200185815260200184815260200184426108969190610ffa565b8152602001600115158152505f5f8381526020019081526020015f205f820151815f015f6101000a81548173ffffffffffffffffffffffffffffffffffffffff021916908373ffffffffffffffffffffffffffffffffffffffff1602179055506020820151816001015f6101000a81548173ffffffffffffffffffffffffffffffffffffffff021916908373ffffffffffffffffffffffffffffffffffffffff1602179055506040820151816002015f6101000a81548173ffffffffffffffffffffffffffffffffffffffff021916908373ffffffffffffffffffffffffffffffffffffffff160217905550606082015181600301556080820151816004015560a0820151816005015560c0820151816006015f6101000a81548160ff0219169083151502179055509050507f11a7acdb40f12388db0682ce7cdb5ffb4d01939a9b0cf653f7c1af7c2f238ad881338887876040516109f995949392919061102d565b60405180910390a180915050949350505050565b60015481565b5f5ffd5b5f819050919050565b610a2981610a17565b8114610a33575f5ffd5b50565b5f81359050610a4481610a20565b92915050565b5f5f60408385031215610a6057610a5f610a13565b5b5f610a6d85828601610a36565b9250506020610a7e85828601610a36565b9150509250929050565b5f60208284031215610a9d57610a9c610a13565b5b5f610aaa84828501610a36565b91505092915050565b5f73ffffffffffffffffffffffffffffffffffffffff82169050919050565b5f610adc82610ab3565b9050919050565b610aec81610ad2565b82525050565b5f819050919050565b5f610b15610b10610b0b84610ab3565b610af2565b610ab3565b9050919050565b5f610b2682610afb565b9050919050565b5f610b3782610b1c565b9050919050565b610b4781610b2d565b82525050565b610b5681610a17565b82525050565b5f8115159050919050565b610b7081610b5c565b82525050565b5f60e082019050610b895f83018a610ae3565b610b966020830189610ae3565b610ba36040830188610b3e565b610bb06060830187610b4d565b610bbd6080830186610b4d565b610bca60a0830185610b4d565b610bd760c0830184610b67565b98975050505050505050565b610bec81610ad2565b8114610bf6575f5ffd5b50565b5f81359050610c0781610be3565b92915050565b5f610c1782610ad2565b9050919050565b610c2781610c0d565b8114610c31575f5ffd5b50565b5f81359050610c4281610c1e565b92915050565b5f5f5f5f60808587031215610c6057610c5f610a13565b5b5f610c6d87828801610bf9565b9450506020610c7e87828801610c34565b9350506040610c8f87828801610a36565b9250506060610ca087828801610a36565b91505092959194509250565b5f602082019050610cbf5f830184610b4d565b92915050565b5f82825260208201905092915050565b7f6e6f7420617574686f72697a65640000000000000000000000000000000000005f82015250565b5f610d09600e83610cc5565b9150610d1482610cd5565b602082019050919050565b5f6020820190508181035f830152610d3681610cfd565b9050919050565b7f6e6f7420616374697665000000000000000000000000000000000000000000005f82015250565b5f610d71600a83610cc5565b9150610d7c82610d3d565b602082019050919050565b5f6020820190508181035f830152610d9e81610d65565b9050919050565b7f6e6f7420647565207965740000000000000000000000000000000000000000005f82015250565b5f610dd9600b83610cc5565b9150610de482610da5565b602082019050919050565b5f6020820190508181035f830152610e0681610dcd565b9050919050565b5f604082019050610e205f830185610ae3565b610e2d6020830184610ae3565b9392505050565b5f81519050610e4281610a20565b92915050565b5f60208284031215610e5d57610e5c610a13565b5b5f610e6a84828501610e34565b91505092915050565b7f696e73756666696369656e7420616c6c6f77616e6365000000000000000000005f82015250565b5f610ea7601683610cc5565b9150610eb282610e73565b602082019050919050565b5f6020820190508181035f830152610ed481610e9b565b9050919050565b5f606082019050610eee5f830186610ae3565b610efb6020830185610ae3565b610f086040830184610b4d565b949350505050565b610f1981610b5c565b8114610f23575f5ffd5b50565b5f81519050610f3481610f10565b92915050565b5f60208284031215610f4f57610f4e610a13565b5b5f610f5c84828501610f26565b91505092915050565b7f7472616e73666572206661696c656400000000000000000000000000000000005f82015250565b5f610f99600f83610cc5565b9150610fa482610f65565b602082019050919050565b5f6020820190508181035f830152610fc681610f8d565b9050919050565b7f4e487b71000000000000000000000000000000000000000000000000000000005f52601160045260245ffd5b5f61100482610a17565b915061100f83610a17565b925082820190508082111561102757611026610fcd565b5b92915050565b5f60a0820190506110405f830188610b4d565b61104d6020830187610ae3565b61105a6040830186610ae3565b6110676060830185610b4d565b6110746080830184610b4d565b9695505050505050565b7f616d6f756e743e300000000000000000000000000000000000000000000000005f82015250565b5f6110b2600883610cc5565b91506110bd8261107e565b602082019050919050565b5f6020820190508181035f8301526110df816110a6565b9050919050565b5f6110f082610a17565b91507fffffffffffffffffffffffffffffffffffffffffffffffffffffffffffffffff820361112257611121610fcd565b5b60018201905091905056fea264697066735822122009ea0142da989371f410e686579c9921aba4733c8b5860182614fe84b51e62ff64736f6c634300081e0033","linkReferences":{}},"methodIdentifiers":{"cancelSubscription(uint256)":"21235083","collectPayment(uint256)":"4795ac60","createSubscription(address,address,uint256,uint256)":"8de8b900","nextSubId()":"9c99f37a","subscriptions(uint256)":"2d5bbf60","updateAmount(uint256,uint256)":"0179cc52"},"id":20}