{"abi":[{"type":"constructor","inputs":[],"stateMutability":"nonpayable"},{"type":"function","name":"getGreeting","inputs":[],"outputs":[{"name":"","type":"string","internalType":"string"}],"stateMutability":"view"},{"type":"function","name":"setGreeting","inputs":[{"name":"newGreeting","type":"string","internalType":"string"}],"outputs":[],"stateMutability":"nonpayable"},{"type":"event","name":"GreetingChanged","inputs":[{"name":"newGreeting","type":"string","indexed":false,"internalType":"string"}],"anonymous":false}],"bytecode":{"object":"0x608060405234801561000f575f5ffd5b506040518060400160405280601081526020017f48656c6c6f2041726368697465637421000000000000000000000000000000008152505f90816100539190610296565b50610365565b5f81519050919050565b7f4e487b71000000000000000000000000000000000000000000000000000000005f52604160045260245ffd5b7f4e487b71000000000000000000000000000000000000000000000000000000005f52602260045260245ffd5b5f60028204905060018216806100d457607f821691505b6020821081036100e7576100e6610090565b5b50919050565b5f819050815f5260205f209050919050565b5f6020601f8301049050919050565b5f82821b905092915050565b5f600883026101497fffffffffffffffffffffffffffffffffffffffffffffffffffffffffffffffff8261010e565b610153868361010e565b95508019841693508086168417925050509392505050565b5f819050919050565b5f819050919050565b5f61019761019261018d8461016b565b610174565b61016b565b9050919050565b5f819050919050565b6101b08361017d565b6101c46101bc8261019e565b84845461011a565b825550505050565b5f5f905090565b6101db6101cc565b6101e68184846101a7565b505050565b5b81811015610209576101fe5f826101d3565b6001810190506101ec565b5050565b601f82111561024e5761021f816100ed565b610228846100ff565b81016020851015610237578190505b61024b610243856100ff565b8301826101eb565b50505b505050565b5f82821c905092915050565b5f61026e5f1984600802610253565b1980831691505092915050565b5f610286838361025f565b9150826002028217905092915050565b61029f82610059565b67ffffffffffffffff8111156102b8576102b7610063565b5b6102c282546100bd565b6102cd82828561020d565b5f60209050601f8311600181146102fe575f84156102ec578287015190505b6102f6858261027b565b86555061035d565b601f19841661030c866100ed565b5f5b828110156103335784890151825560018201915060208501945060208101905061030e565b86831015610350578489015161034c601f89168261025f565b8355505b6001600288020188555050505b505050505050565b610669806103725f395ff3fe608060405234801561000f575f5ffd5b5060043610610034575f3560e01c8063a413686214610038578063fe50cc7214610054575b5f5ffd5b610052600480360381019061004d9190610297565b610072565b005b61005c6100bb565b604051610069919061033e565b60405180910390f35b805f90816100809190610564565b507f58c1144814f1df01a80f7347f945437a37cd818e027f87b0ade6db623ec41b57816040516100b0919061033e565b60405180910390a150565b60605f80546100c99061038b565b80601f01602080910402602001604051908101604052809291908181526020018280546100f59061038b565b80156101405780601f1061011757610100808354040283529160200191610140565b820191905f5260205f20905b81548152906001019060200180831161012357829003601f168201915b5050505050905090565b5f604051905090565b5f5ffd5b5f5ffd5b5f5ffd5b5f5ffd5b5f601f19601f8301169050919050565b7f4e487b71000000000000000000000000000000000000000000000000000000005f52604160045260245ffd5b6101a982610163565b810181811067ffffffffffffffff821117156101c8576101c7610173565b5b80604052505050565b5f6101da61014a565b90506101e682826101a0565b919050565b5f67ffffffffffffffff82111561020557610204610173565b5b61020e82610163565b9050602081019050919050565b828183375f83830152505050565b5f61023b610236846101eb565b6101d1565b9050828152602081018484840111156102575761025661015f565b5b61026284828561021b565b509392505050565b5f82601f83011261027e5761027d61015b565b5b813561028e848260208601610229565b91505092915050565b5f602082840312156102ac576102ab610153565b5b5f82013567ffffffffffffffff8111156102c9576102c8610157565b5b6102d58482850161026a565b91505092915050565b5f81519050919050565b5f82825260208201905092915050565b8281835e5f83830152505050565b5f610310826102de565b61031a81856102e8565b935061032a8185602086016102f8565b61033381610163565b840191505092915050565b5f6020820190508181035f8301526103568184610306565b905092915050565b7f4e487b71000000000000000000000000000000000000000000000000000000005f52602260045260245ffd5b5f60028204905060018216806103a257607f821691505b6020821081036103b5576103b461035e565b5b50919050565b5f819050815f5260205f209050919050565b5f6020601f8301049050919050565b5f82821b905092915050565b5f600883026104177fffffffffffffffffffffffffffffffffffffffffffffffffffffffffffffffff826103dc565b61042186836103dc565b95508019841693508086168417925050509392505050565b5f819050919050565b5f819050919050565b5f61046561046061045b84610439565b610442565b610439565b9050919050565b5f819050919050565b61047e8361044b565b61049261048a8261046c565b8484546103e8565b825550505050565b5f5f905090565b6104a961049a565b6104b4818484610475565b505050565b5b818110156104d7576104cc5f826104a1565b6001810190506104ba565b5050565b601f82111561051c576104ed816103bb565b6104f6846103cd565b81016020851015610505578190505b610519610511856103cd565b8301826104b9565b50505b505050565b5f82821c905092915050565b5f61053c5f1984600802610521565b1980831691505092915050565b5f610554838361052d565b9150826002028217905092915050565b61056d826102de565b67ffffffffffffffff81111561058657610585610173565b5b610590825461038b565b61059b8282856104db565b5f60209050601f8311600181146105cc575f84156105ba578287015190505b6105c48582610549565b86555061062b565b601f1984166105da866103bb565b5f5b82811015610601578489015182556001820191506020850194506020810190506105dc565b8683101561061e578489015161061a601f89168261052d565b8355505b6001600288020188555050505b50505050505056fea2646970667358221220afad521717b3692d94142c41cf8ba0ff17c5f325c8a796fca88269986936aea164736f6c634300081e0033","linkReferences":{}},"methodIdentifiers":{"getGreeting()":"fe50cc72","setGreeting(string)":"a4136862"},"id":19}